{
    "_format": "hh-sol-artifact-1",
    "contractName": "VotingDApp",
    "sourceName": "contracts/ElectionVoting.sol",
    "abi": [
        {
            "inputs": [],
            "stateMutability": "nonpayable",
            "type": "constructor"
        },
        {
            "anonymous": false,
            "inputs": [
                {
                    "indexed": true,
                    "internalType": "uint256",
                    "name": "electionId",
                    "type": "uint256"
                },
                {
                    "indexed": false,
                    "internalType": "uint256",
                    "name": "candidateId",
                    "type": "uint256"
                },
                {
                    "indexed": false,
                    "internalType": "string",
                    "name": "name",
                    "type": "string"
                }
            ],
            "name": "CandidateAdded",
            "type": "event"
        },
        {
            "anonymous": false,
            "inputs": [
                {
                    "indexed": true,
                    "internalType": "uint256",
                    "name": "electionId",
                    "type": "uint256"
                },
                {
                    "indexed": false,
                    "internalType": "string",
                    "name": "title",
                    "type": "string"
                },
                {
                    "indexed": false,
                    "internalType": "address",
                    "name": "creator",
                    "type": "address"
                }
            ],
            "name": "ElectionCreated",
            "type": "event"
        },
        {
            "anonymous": false,
            "inputs": [
                {
                    "indexed": true,
                    "internalType": "uint256",
                    "name": "electionId",
                    "type": "uint256"
                },
                {
                    "indexed": false,
                    "internalType": "bool",
                    "name": "active",
                    "type": "bool"
                }
            ],
            "name": "ElectionStatusChanged",
            "type": "event"
        },
        {
            "anonymous": false,
            "inputs": [
                {
                    "indexed": true,
                    "internalType": "uint256",
                    "name": "electionId",
                    "type": "uint256"
                },
                {
                    "indexed": true,
                    "internalType": "address",
                    "name": "voter",
                    "type": "address"
                },
                {
                    "indexed": false,
                    "internalType": "uint256",
                    "name": "candidateId",
                    "type": "uint256"
                }
            ],
            "name": "VoteCast",
            "type": "event"
        },
        {
            "anonymous": false,
            "inputs": [
                {
                    "indexed": true,
                    "internalType": "uint256",
                    "name": "electionId",
                    "type": "uint256"
                },
                {
                    "indexed": false,
                    "internalType": "address",
                    "name": "voter",
                    "type": "address"
                }
            ],
            "name": "VoterWhitelisted",
            "type": "event"
        },
        {
            "inputs": [
                {
                    "internalType": "uint256",
                    "name": "_electionId",
                    "type": "uint256"
                },
                {
                    "internalType": "string",
                    "name": "_name",
                    "type": "string"
                },
                {
                    "internalType": "string",
                    "name": "_info",
                    "type": "string"
                }
            ],
            "name": "addCandidate",
            "outputs": [
                {
                    "internalType": "uint256",
                    "name": "",
                    "type": "uint256"
                }
            ],
            "stateMutability": "nonpayable",
            "type": "function"
        },
        {
            "inputs": [
                {
                    "internalType": "uint256",
                    "name": "_electionId",
                    "type": "uint256"
                },
                {
                    "internalType": "address[]",
                    "name": "_voters",
                    "type": "address[]"
                }
            ],
            "name": "addToWhitelist",
            "outputs": [],
            "stateMutability": "nonpayable",
            "type": "function"
        },
        {
            "inputs": [
                {
                    "internalType": "uint256",
                    "name": "",
                    "type": "uint256"
                },
                {
                    "internalType": "uint256",
                    "name": "",
                    "type": "uint256"
                }
            ],
            "name": "candidates",
            "outputs": [
                {
                    "internalType": "uint256",
                    "name": "id",
                    "type": "uint256"
                },
                {
                    "internalType": "string",
                    "name": "name",
                    "type": "string"
                },
                {
                    "internalType": "string",
                    "name": "info",
                    "type": "string"
                },
                {
                    "internalType": "uint256",
                    "name": "voteCount",
                    "type": "uint256"
                }
            ],
            "stateMutability": "view",
            "type": "function"
        },
        {
            "inputs": [
                {
                    "internalType": "uint256",
                    "name": "_electionId",
                    "type": "uint256"
                },
                {
                    "internalType": "uint256",
                    "name": "_candidateId",
                    "type": "uint256"
                }
            ],
            "name": "castVote",
            "outputs": [],
            "stateMutability": "nonpayable",
            "type": "function"
        },
        {
            "inputs": [
                {
                    "internalType": "uint256",
                    "name": "_electionId",
                    "type": "uint256"
                },
                {
                    "internalType": "address",
                    "name": "_voter",
                    "type": "address"
                }
            ],
            "name": "checkVoted",
            "outputs": [
                {
                    "internalType": "bool",
                    "name": "",
                    "type": "bool"
                }
            ],
            "stateMutability": "view",
            "type": "function"
        },
        {
            "inputs": [
                {
                    "internalType": "uint256",
                    "name": "_electionId",
                    "type": "uint256"
                },
                {
                    "internalType": "address",
                    "name": "_voter",
                    "type": "address"
                }
            ],
            "name": "checkWhitelisted",
            "outputs": [
                {
                    "internalType": "bool",
                    "name": "",
                    "type": "bool"
                }
            ],
            "stateMutability": "view",
            "type": "function"
        },
        {
            "inputs": [
                {
                    "internalType": "string",
                    "name": "_title",
                    "type": "string"
                },
                {
                    "internalType": "string",
                    "name": "_description",
                    "type": "string"
                },
                {
                    "internalType": "uint256",
                    "name": "_startTime",
                    "type": "uint256"
                },
                {
                    "internalType": "uint256",
                    "name": "_endTime",
                    "type": "uint256"
                },
                {
                    "internalType": "bool",
                    "name": "_enableWhitelist",
                    "type": "bool"
                }
            ],
            "name": "createElection",
            "outputs": [
                {
                    "internalType": "uint256",
                    "name": "",
                    "type": "uint256"
                }
            ],
            "stateMutability": "nonpayable",
            "type": "function"
        },
        {
            "inputs": [],
            "name": "electionCount",
            "outputs": [
                {
                    "internalType": "uint256",
                    "name": "",
                    "type": "uint256"
                }
            ],
            "stateMutability": "view",
            "type": "function"
        },
        {
            "inputs": [
                {
                    "internalType": "uint256",
                    "name": "",
                    "type": "uint256"
                }
            ],
            "name": "elections",
            "outputs": [
                {
                    "internalType": "uint256",
                    "name": "id",
                    "type": "uint256"
                },
                {
                    "internalType": "string",
                    "name": "title",
                    "type": "string"
                },
                {
                    "internalType": "string",
                    "name": "description",
                    "type": "string"
                },
                {
                    "internalType": "uint256",
                    "name": "startTime",
                    "type": "uint256"
                },
                {
                    "internalType": "uint256",
                    "name": "endTime",
                    "type": "uint256"
                },
                {
                    "internalType": "bool",
                    "name": "active",
                    "type": "bool"
                },
                {
                    "internalType": "uint256",
                    "name": "candidateCount",
                    "type": "uint256"
                },
                {
                    "internalType": "address",
                    "name": "creator",
                    "type": "address"
                }
            ],
            "stateMutability": "view",
            "type": "function"
        },
        {
            "inputs": [
                {
                    "internalType": "uint256",
                    "name": "_electionId",
                    "type": "uint256"
                },
                {
                    "internalType": "uint256",
                    "name": "_candidateId",
                    "type": "uint256"
                }
            ],
            "name": "getCandidate",
            "outputs": [
                {
                    "internalType": "uint256",
                    "name": "",
                    "type": "uint256"
                },
                {
                    "internalType": "string",
                    "name": "",
                    "type": "string"
                },
                {
                    "internalType": "string",
                    "name": "",
                    "type": "string"
                },
                {
                    "internalType": "uint256",
                    "name": "",
                    "type": "uint256"
                }
            ],
            "stateMutability": "view",
            "type": "function"
        },
        {
            "inputs": [
                {
                    "internalType": "uint256",
                    "name": "_electionId",
                    "type": "uint256"
                }
            ],
            "name": "getCandidateCount",
            "outputs": [
                {
                    "internalType": "uint256",
                    "name": "",
                    "type": "uint256"
                }
            ],
            "stateMutability": "view",
            "type": "function"
        },
        {
            "inputs": [],
            "name": "getCurrentTime",
            "outputs": [
                {
                    "internalType": "uint256",
                    "name": "",
                    "type": "uint256"
                }
            ],
            "stateMutability": "view",
            "type": "function"
        },
        {
            "inputs": [
                {
                    "internalType": "uint256",
                    "name": "_electionId",
                    "type": "uint256"
                }
            ],
            "name": "getElection",
            "outputs": [
                {
                    "internalType": "uint256",
                    "name": "",
                    "type": "uint256"
                },
                {
                    "internalType": "string",
                    "name": "",
                    "type": "string"
                },
                {
                    "internalType": "string",
                    "name": "",
                    "type": "string"
                },
                {
                    "internalType": "uint256",
                    "name": "",
                    "type": "uint256"
                },
                {
                    "internalType": "uint256",
                    "name": "",
                    "type": "uint256"
                },
                {
                    "internalType": "bool",
                    "name": "",
                    "type": "bool"
                },
                {
                    "internalType": "uint256",
                    "name": "",
                    "type": "uint256"
                },
                {
                    "internalType": "address",
                    "name": "",
                    "type": "address"
                }
            ],
            "stateMutability": "view",
            "type": "function"
        },
        {
            "inputs": [
                {
                    "internalType": "uint256",
                    "name": "_electionId",
                    "type": "uint256"
                }
            ],
            "name": "getElectionResults",
            "outputs": [
                {
                    "internalType": "uint256[]",
                    "name": "",
                    "type": "uint256[]"
                },
                {
                    "internalType": "string[]",
                    "name": "",
                    "type": "string[]"
                },
                {
                    "internalType": "uint256[]",
                    "name": "",
                    "type": "uint256[]"
                }
            ],
            "stateMutability": "view",
            "type": "function"
        },
        {
            "inputs": [
                {
                    "internalType": "uint256",
                    "name": "",
                    "type": "uint256"
                },
                {
                    "internalType": "address",
                    "name": "",
                    "type": "address"
                }
            ],
            "name": "hasVoted",
            "outputs": [
                {
                    "internalType": "bool",
                    "name": "",
                    "type": "bool"
                }
            ],
            "stateMutability": "view",
            "type": "function"
        },
        {
            "inputs": [],
            "name": "owner",
            "outputs": [
                {
                    "internalType": "address",
                    "name": "",
                    "type": "address"
                }
            ],
            "stateMutability": "view",
            "type": "function"
        },
        {
            "inputs": [
                {
                    "internalType": "uint256",
                    "name": "_electionId",
                    "type": "uint256"
                },
                {
                    "internalType": "bool",
                    "name": "_active",
                    "type": "bool"
                }
            ],
            "name": "setElectionStatus",
            "outputs": [],
            "stateMutability": "nonpayable",
            "type": "function"
        },
        {
            "inputs": [
                {
                    "internalType": "uint256",
                    "name": "",
                    "type": "uint256"
                },
                {
                    "internalType": "address",
                    "name": "",
                    "type": "address"
                }
            ],
            "name": "voterWhitelist",
            "outputs": [
                {
                    "internalType": "bool",
                    "name": "",
                    "type": "bool"
                }
            ],
            "stateMutability": "view",
            "type": "function"
        },
        {
            "inputs": [
                {
                    "internalType": "uint256",
                    "name": "",
                    "type": "uint256"
                }
            ],
            "name": "whitelistEnabled",
            "outputs": [
                {
                    "internalType": "bool",
                    "name": "",
                    "type": "bool"
                }
            ],
            "stateMutability": "view",
            "type": "function"
        }
    ],
    "bytecode": "0x608060405234801561001057600080fd5b50336000806101000a81548173ffffffffffffffffffffffffffffffffffffffff021916908373ffffffffffffffffffffffffffffffffffffffff16021790555060006001819055506130d5806100686000396000f3fe608060405234801561001057600080fd5b50600436106101215760003560e01c80638da5cb5b116100ad578063d5617ecf11610071578063d5617ecf14610390578063e5eaeacd146103ac578063e6c62efc146103dc578063e8ededa61461040c578063f2295b1d1461043e57610121565b80638da5cb5b146102bd578063984de1e9146102db578063997d28301461030b5780639d71077714610329578063aee2b32a1461036057610121565b806343859632116100f457806343859632146101c05780634bd46448146101f05780635e6fef01146102235780636d6ae1291461025a5780637de142421461028a57610121565b806316654c731461012657806326f6a2aa1461015657806329cb924d146101865780632c0a3f89146101a4575b600080fd5b610140600480360381019061013b9190612167565b61045a565b60405161014d9190612229565b60405180910390f35b610170600480360381019061016b9190612244565b6106a5565b60405161017d9190612229565b60405180910390f35b61018e610718565b60405161019b9190612229565b60405180910390f35b6101be60048036038101906101b99190612271565b610720565b005b6101da60048036038101906101d5919061230f565b610b4e565b6040516101e7919061235e565b60405180910390f35b61020a60048036038101906102059190612271565b610b7d565b60405161021a9493929190612401565b60405180910390f35b61023d60048036038101906102389190612244565b610dcd565b604051610251989796959493929190612463565b60405180910390f35b610274600480360381019061026f9190612244565b610f52565b604051610281919061235e565b60405180910390f35b6102a4600480360381019061029f9190612271565b610f72565b6040516102b49493929190612401565b60405180910390f35b6102c56110bf565b6040516102d291906124ef565b60405180910390f35b6102f560048036038101906102f0919061230f565b6110e3565b604051610302919061235e565b60405180910390f35b61031361119e565b6040516103209190612229565b60405180910390f35b610343600480360381019061033e9190612244565b6111a4565b604051610357989796959493929190612463565b60405180910390f35b61037a6004803603810190610375919061230f565b611428565b604051610387919061235e565b60405180910390f35b6103aa60048036038101906103a5919061250a565b611457565b005b6103c660048036038101906103c1919061230f565b6115ba565b6040516103d3919061235e565b60405180910390f35b6103f660048036038101906103f1919061254a565b6116a4565b6040516104039190612229565b60405180910390f35b61042660048036038101906104219190612244565b61191a565b6040516104359392919061279f565b60405180910390f35b610458600480360381019061045391906128b3565b611caa565b005b60004284101561049f576040517f08c379a00000000000000000000000000000000000000000000000000000000081526004016104969061295b565b60405180910390fd5b8383116104e1576040517f08c379a00000000000000000000000000000000000000000000000000000000081526004016104d8906129ed565b60405180910390fd5b600160008154809291906104f490612a3c565b919050555060006001549050604051806101000160405280828152602001888152602001878152602001868152602001858152602001600115158152602001600081526020013373ffffffffffffffffffffffffffffffffffffffff168152506002600083815260200190815260200160002060008201518160000155602082015181600101908051906020019061058d929190611efc565b5060408201518160020190805190602001906105aa929190611efc565b50606082015181600301556080820151816004015560a08201518160050160006101000a81548160ff02191690831515021790555060c0820151816006015560e08201518160070160006101000a81548173ffffffffffffffffffffffffffffffffffffffff021916908373ffffffffffffffffffffffffffffffffffffffff160217905550905050826006600083815260200190815260200160002060006101000a81548160ff021916908315150217905550807f86a3370600c4089c572e5fa1f974825253da2be6295eb9e0eef3423aebd991b08833604051610690929190612a85565b60405180910390a28091505095945050505050565b6000816000811180156106ba57506001548111155b6106f9576040517f08c379a00000000000000000000000000000000000000000000000000000000081526004016106f090612b01565b60405180910390fd5b6002600084815260200190815260200160002060060154915050919050565b600042905090565b8160008111801561073357506001548111155b610772576040517f08c379a000000000000000000000000000000000000000000000000000000000815260040161076990612b01565b60405180910390fd5b826002600082815260200190815260200160002060050160009054906101000a900460ff166107d6576040517f08c379a00000000000000000000000000000000000000000000000000000000081526004016107cd90612b6d565b60405180910390fd5b600260008281526020019081526020016000206003015442101561082f576040517f08c379a000000000000000000000000000000000000000000000000000000000815260040161082690612bd9565b60405180910390fd5b6002600082815260200190815260200160002060040154421115610888576040517f08c379a000000000000000000000000000000000000000000000000000000000815260040161087f90612c45565b60405180910390fd5b836004600082815260200190815260200160002060003373ffffffffffffffffffffffffffffffffffffffff1673ffffffffffffffffffffffffffffffffffffffff16815260200190815260200160002060009054906101000a900460ff1615610927576040517f08c379a000000000000000000000000000000000000000000000000000000000815260040161091e90612cd7565b60405180910390fd5b846006600082815260200190815260200160002060009054906101000a900460ff16156109ec576005600082815260200190815260200160002060003373ffffffffffffffffffffffffffffffffffffffff1673ffffffffffffffffffffffffffffffffffffffff16815260200190815260200160002060009054906101000a900460ff166109eb576040517f08c379a00000000000000000000000000000000000000000000000000000000081526004016109e290612d69565b60405180910390fd5b5b600085118015610a12575060026000878152602001908152602001600020600601548511155b610a51576040517f08c379a0000000000000000000000000000000000000000000000000000000008152600401610a4890612dd5565b60405180910390fd5b6003600087815260200190815260200160002060008681526020019081526020016000206003016000815480929190610a8990612a3c565b919050555060016004600088815260200190815260200160002060003373ffffffffffffffffffffffffffffffffffffffff1673ffffffffffffffffffffffffffffffffffffffff16815260200190815260200160002060006101000a81548160ff0219169083151502179055503373ffffffffffffffffffffffffffffffffffffffff16867f2acce567deca3aabf56327adbb4524bd5318936eaefa69e3a5208ffda0cfec0987604051610b3e9190612229565b60405180910390a3505050505050565b60046020528160005260406000206020528060005260406000206000915091509054906101000a900460ff1681565b6000606080600085600081118015610b9757506001548111155b610bd6576040517f08c379a0000000000000000000000000000000000000000000000000000000008152600401610bcd90612b01565b60405180910390fd5b600086118015610bfc575060026000888152602001908152602001600020600601548611155b610c3b576040517f08c379a0000000000000000000000000000000000000000000000000000000008152600401610c3290612dd5565b60405180910390fd5b600060036000898152602001908152602001600020600088815260200190815260200160002060405180608001604052908160008201548152602001600182018054610c8690612e24565b80601f0160208091040260200160405190810160405280929190818152602001828054610cb290612e24565b8015610cff5780601f10610cd457610100808354040283529160200191610cff565b820191906000526020600020905b815481529060010190602001808311610ce257829003601f168201915b50505050508152602001600282018054610d1890612e24565b80601f0160208091040260200160405190810160405280929190818152602001828054610d4490612e24565b8015610d915780601f10610d6657610100808354040283529160200191610d91565b820191906000526020600020905b815481529060010190602001808311610d7457829003601f168201915b50505050508152602001600382015481525050905080600001518160200151826040015183606001519550955095509550505092959194509250565b6002602052806000526040600020600091509050806000015490806001018054610df690612e24565b80601f0160208091040260200160405190810160405280929190818152602001828054610e2290612e24565b8015610e6f5780601f10610e4457610100808354040283529160200191610e6f565b820191906000526020600020905b815481529060010190602001808311610e5257829003601f168201915b505050505090806002018054610e8490612e24565b80601f0160208091040260200160405190810160405280929190818152602001828054610eb090612e24565b8015610efd5780601f10610ed257610100808354040283529160200191610efd565b820191906000526020600020905b815481529060010190602001808311610ee057829003601f168201915b5050505050908060030154908060040154908060050160009054906101000a900460ff16908060060154908060070160009054906101000a900473ffffffffffffffffffffffffffffffffffffffff16905088565b60066020528060005260406000206000915054906101000a900460ff1681565b600360205281600052604060002060205280600052604060002060009150915050806000015490806001018054610fa890612e24565b80601f0160208091040260200160405190810160405280929190818152602001828054610fd490612e24565b80156110215780601f10610ff657610100808354040283529160200191611021565b820191906000526020600020905b81548152906001019060200180831161100457829003601f168201915b50505050509080600201805461103690612e24565b80601f016020809104026020016040519081016040528092919081815260200182805461106290612e24565b80156110af5780601f10611084576101008083540402835291602001916110af565b820191906000526020600020905b81548152906001019060200180831161109257829003601f168201915b5050505050908060030154905084565b60008054906101000a900473ffffffffffffffffffffffffffffffffffffffff1681565b6000826000811180156110f857506001548111155b611137576040517f08c379a000000000000000000000000000000000000000000000000000000000815260040161112e90612b01565b60405180910390fd5b6004600085815260200190815260200160002060008473ffffffffffffffffffffffffffffffffffffffff1673ffffffffffffffffffffffffffffffffffffffff16815260200190815260200160002060009054906101000a900460ff1691505092915050565b60015481565b60006060806000806000806000886000811180156111c457506001548111155b611203576040517f08c379a00000000000000000000000000000000000000000000000000000000081526004016111fa90612b01565b60405180910390fd5b6000600260008c8152602001908152602001600020604051806101000160405290816000820154815260200160018201805461123e90612e24565b80601f016020809104026020016040519081016040528092919081815260200182805461126a90612e24565b80156112b75780601f1061128c576101008083540402835291602001916112b7565b820191906000526020600020905b81548152906001019060200180831161129a57829003601f168201915b505050505081526020016002820180546112d090612e24565b80601f01602080910402602001604051908101604052809291908181526020018280546112fc90612e24565b80156113495780601f1061131e57610100808354040283529160200191611349565b820191906000526020600020905b81548152906001019060200180831161132c57829003601f168201915b5050505050815260200160038201548152602001600482015481526020016005820160009054906101000a900460ff16151515158152602001600682015481526020016007820160009054906101000a900473ffffffffffffffffffffffffffffffffffffffff1673ffffffffffffffffffffffffffffffffffffffff1673ffffffffffffffffffffffffffffffffffffffff16815250509050806000015181602001518260400151836060015184608001518560a001518660c001518760e00151995099509950995099509950995099505050919395975091939597565b60056020528160005260406000206020528060005260406000206000915091509054906101000a900460ff1681565b813373ffffffffffffffffffffffffffffffffffffffff166002600083815260200190815260200160002060070160009054906101000a900473ffffffffffffffffffffffffffffffffffffffff1673ffffffffffffffffffffffffffffffffffffffff16146114fc576040517f08c379a00000000000000000000000000000000000000000000000000000000081526004016114f390612ec8565b60405180910390fd5b8260008111801561150f57506001548111155b61154e576040517f08c379a000000000000000000000000000000000000000000000000000000000815260040161154590612b01565b60405180910390fd5b826002600086815260200190815260200160002060050160006101000a81548160ff021916908315150217905550837f550243ff1a84cc99f7f82bfd2e29380f33523ca72cde0783141c25ed8f4dede3846040516115ac919061235e565b60405180910390a250505050565b6000826000811180156115cf57506001548111155b61160e576040517f08c379a000000000000000000000000000000000000000000000000000000000815260040161160590612b01565b60405180910390fd5b6006600085815260200190815260200160002060009054906101000a900460ff1661163c576001915061169d565b6005600085815260200190815260200160002060008473ffffffffffffffffffffffffffffffffffffffff1673ffffffffffffffffffffffffffffffffffffffff16815260200190815260200160002060009054906101000a900460ff1691505b5092915050565b6000833373ffffffffffffffffffffffffffffffffffffffff166002600083815260200190815260200160002060070160009054906101000a900473ffffffffffffffffffffffffffffffffffffffff1673ffffffffffffffffffffffffffffffffffffffff161461174b576040517f08c379a000000000000000000000000000000000000000000000000000000000815260040161174290612ec8565b60405180910390fd5b8460008111801561175e57506001548111155b61179d576040517f08c379a000000000000000000000000000000000000000000000000000000000815260040161179490612b01565b60405180910390fd5b600260008781526020019081526020016000206003015442106117f5576040517f08c379a00000000000000000000000000000000000000000000000000000000081526004016117ec90612f5a565b60405180910390fd5b60026000878152602001908152602001600020600601600081548092919061181c90612a3c565b9190505550600060026000888152602001908152602001600020600601549050604051806080016040528082815260200187815260200186815260200160008152506003600089815260200190815260200160002060008381526020019081526020016000206000820151816000015560208201518160010190805190602001906118a8929190611efc565b5060408201518160020190805190602001906118c5929190611efc565b5060608201518160030155905050867fed8911b3df733b7d5f75724158e54478ea12e30f49c9d31b5261879f5b76586f8288604051611905929190612f7a565b60405180910390a28093505050509392505050565b60608060608360008111801561193257506001548111155b611971576040517f08c379a000000000000000000000000000000000000000000000000000000000815260040161196890612b01565b60405180910390fd5b60006002600087815260200190815260200160002060060154905060008167ffffffffffffffff8111156119a8576119a7611fce565b5b6040519080825280602002602001820160405280156119d65781602001602082028036833780820191505090505b50905060008267ffffffffffffffff8111156119f5576119f4611fce565b5b604051908082528060200260200182016040528015611a2857816020015b6060815260200190600190039081611a135790505b50905060008367ffffffffffffffff811115611a4757611a46611fce565b5b604051908082528060200260200182016040528015611a755781602001602082028036833780820191505090505b5090506000600190505b848111611c94576000600360008c8152602001908152602001600020600083815260200190815260200160002060405180608001604052908160008201548152602001600182018054611ad190612e24565b80601f0160208091040260200160405190810160405280929190818152602001828054611afd90612e24565b8015611b4a5780601f10611b1f57610100808354040283529160200191611b4a565b820191906000526020600020905b815481529060010190602001808311611b2d57829003601f168201915b50505050508152602001600282018054611b6390612e24565b80601f0160208091040260200160405190810160405280929190818152602001828054611b8f90612e24565b8015611bdc5780601f10611bb157610100808354040283529160200191611bdc565b820191906000526020600020905b815481529060010190602001808311611bbf57829003601f168201915b505050505081526020016003820154815250509050806000015185600184611c049190612faa565b81518110611c1557611c14612fde565b5b602002602001018181525050806020015184600184611c349190612faa565b81518110611c4557611c44612fde565b5b6020026020010181905250806060015183600184611c639190612faa565b81518110611c7457611c73612fde565b5b602002602001018181525050508080611c8c90612a3c565b915050611a7f565b5082828297509750975050505050509193909250565b813373ffffffffffffffffffffffffffffffffffffffff166002600083815260200190815260200160002060070160009054906101000a900473ffffffffffffffffffffffffffffffffffffffff1673ffffffffffffffffffffffffffffffffffffffff1614611d4f576040517f08c379a0000000000000000000000000000000000000000000000000000000008152600401611d4690612ec8565b60405180910390fd5b82600081118015611d6257506001548111155b611da1576040517f08c379a0000000000000000000000000000000000000000000000000000000008152600401611d9890612b01565b60405180910390fd5b6006600085815260200190815260200160002060009054906101000a900460ff16611e01576040517f08c379a0000000000000000000000000000000000000000000000000000000008152600401611df89061307f565b60405180910390fd5b60005b8351811015611ef5576001600560008781526020019081526020016000206000868481518110611e3757611e36612fde565b5b602002602001015173ffffffffffffffffffffffffffffffffffffffff1673ffffffffffffffffffffffffffffffffffffffff16815260200190815260200160002060006101000a81548160ff021916908315150217905550847fc821f3f69f5ec12a0eb4c36ddd911c89b5c4e441d493be94980d2e34a7425491858381518110611ec557611ec4612fde565b5b6020026020010151604051611eda91906124ef565b60405180910390a28080611eed90612a3c565b915050611e04565b5050505050565b828054611f0890612e24565b90600052602060002090601f016020900481019282611f2a5760008555611f71565b82601f10611f4357805160ff1916838001178555611f71565b82800160010185558215611f71579182015b82811115611f70578251825591602001919060010190611f55565b5b509050611f7e9190611f82565b5090565b5b80821115611f9b576000816000905550600101611f83565b5090565b6000604051905090565b600080fd5b600080fd5b600080fd5b600080fd5b6000601f19601f8301169050919050565b7f4e487b7100000000000000000000000000000000000000000000000000000000600052604160045260246000fd5b61200682611fbd565b810181811067ffffffffffffffff8211171561202557612024611fce565b5b80604052505050565b6000612038611f9f565b90506120448282611ffd565b919050565b600067ffffffffffffffff82111561206457612063611fce565b5b61206d82611fbd565b9050602081019050919050565b82818337600083830152505050565b600061209c61209784612049565b61202e565b9050828152602081018484840111156120b8576120b7611fb8565b5b6120c384828561207a565b509392505050565b600082601f8301126120e0576120df611fb3565b5b81356120f0848260208601612089565b91505092915050565b6000819050919050565b61210c816120f9565b811461211757600080fd5b50565b60008135905061212981612103565b92915050565b60008115159050919050565b6121448161212f565b811461214f57600080fd5b50565b6000813590506121618161213b565b92915050565b600080600080600060a0868803121561218357612182611fa9565b5b600086013567ffffffffffffffff8111156121a1576121a0611fae565b5b6121ad888289016120cb565b955050602086013567ffffffffffffffff8111156121ce576121cd611fae565b5b6121da888289016120cb565b94505060406121eb8882890161211a565b93505060606121fc8882890161211a565b925050608061220d88828901612152565b9150509295509295909350565b612223816120f9565b82525050565b600060208201905061223e600083018461221a565b92915050565b60006020828403121561225a57612259611fa9565b5b60006122688482850161211a565b91505092915050565b6000806040838503121561228857612287611fa9565b5b60006122968582860161211a565b92505060206122a78582860161211a565b9150509250929050565b600073ffffffffffffffffffffffffffffffffffffffff82169050919050565b60006122dc826122b1565b9050919050565b6122ec816122d1565b81146122f757600080fd5b50565b600081359050612309816122e3565b92915050565b6000806040838503121561232657612325611fa9565b5b60006123348582860161211a565b9250506020612345858286016122fa565b9150509250929050565b6123588161212f565b82525050565b6000602082019050612373600083018461234f565b92915050565b600081519050919050565b600082825260208201905092915050565b60005b838110156123b3578082015181840152602081019050612398565b838111156123c2576000848401525b50505050565b60006123d382612379565b6123dd8185612384565b93506123ed818560208601612395565b6123f681611fbd565b840191505092915050565b6000608082019050612416600083018761221a565b818103602083015261242881866123c8565b9050818103604083015261243c81856123c8565b905061244b606083018461221a565b95945050505050565b61245d816122d1565b82525050565b600061010082019050612479600083018b61221a565b818103602083015261248b818a6123c8565b9050818103604083015261249f81896123c8565b90506124ae606083018861221a565b6124bb608083018761221a565b6124c860a083018661234f565b6124d560c083018561221a565b6124e260e0830184612454565b9998505050505050505050565b60006020820190506125046000830184612454565b92915050565b6000806040838503121561252157612520611fa9565b5b600061252f8582860161211a565b925050602061254085828601612152565b9150509250929050565b60008060006060848603121561256357612562611fa9565b5b60006125718682870161211a565b935050602084013567ffffffffffffffff81111561259257612591611fae565b5b61259e868287016120cb565b925050604084013567ffffffffffffffff8111156125bf576125be611fae565b5b6125cb868287016120cb565b9150509250925092565b600081519050919050565b600082825260208201905092915050565b6000819050602082019050919050565b61260a816120f9565b82525050565b600061261c8383612601565b60208301905092915050565b6000602082019050919050565b6000612640826125d5565b61264a81856125e0565b9350612655836125f1565b8060005b8381101561268657815161266d8882612610565b975061267883612628565b925050600181019050612659565b5085935050505092915050565b600081519050919050565b600082825260208201905092915050565b6000819050602082019050919050565b600082825260208201905092915050565b60006126db82612379565b6126e581856126bf565b93506126f5818560208601612395565b6126fe81611fbd565b840191505092915050565b600061271583836126d0565b905092915050565b6000602082019050919050565b600061273582612693565b61273f818561269e565b935083602082028501612751856126af565b8060005b8581101561278d578484038952815161276e8582612709565b94506127798361271d565b925060208a01995050600181019050612755565b50829750879550505050505092915050565b600060608201905081810360008301526127b98186612635565b905081810360208301526127cd818561272a565b905081810360408301526127e18184612635565b9050949350505050565b600067ffffffffffffffff82111561280657612805611fce565b5b602082029050602081019050919050565b600080fd5b600061282f61282a846127eb565b61202e565b9050808382526020820190506020840283018581111561285257612851612817565b5b835b8181101561287b578061286788826122fa565b845260208401935050602081019050612854565b5050509392505050565b600082601f83011261289a57612899611fb3565b5b81356128aa84826020860161281c565b91505092915050565b600080604083850312156128ca576128c9611fa9565b5b60006128d88582860161211a565b925050602083013567ffffffffffffffff8111156128f9576128f8611fae565b5b61290585828601612885565b9150509250929050565b7f53746172742074696d65206d75737420626520696e2074686520667574757265600082015250565b6000612945602083612384565b91506129508261290f565b602082019050919050565b6000602082019050818103600083015261297481612938565b9050919050565b7f456e642074696d65206d7573742062652061667465722073746172742074696d60008201527f6500000000000000000000000000000000000000000000000000000000000000602082015250565b60006129d7602183612384565b91506129e28261297b565b604082019050919050565b60006020820190508181036000830152612a06816129ca565b9050919050565b7f4e487b7100000000000000000000000000000000000000000000000000000000600052601160045260246000fd5b6000612a47826120f9565b91507fffffffffffffffffffffffffffffffffffffffffffffffffffffffffffffffff821415612a7a57612a79612a0d565b5b600182019050919050565b60006040820190508181036000830152612a9f81856123c8565b9050612aae6020830184612454565b9392505050565b7f456c656374696f6e20646f6573206e6f74206578697374000000000000000000600082015250565b6000612aeb601783612384565b9150612af682612ab5565b602082019050919050565b60006020820190508181036000830152612b1a81612ade565b9050919050565b7f456c656374696f6e206973206e6f742061637469766500000000000000000000600082015250565b6000612b57601683612384565b9150612b6282612b21565b602082019050919050565b60006020820190508181036000830152612b8681612b4a565b9050919050565b7f456c656374696f6e20686173206e6f7420737461727465642079657400000000600082015250565b6000612bc3601c83612384565b9150612bce82612b8d565b602082019050919050565b60006020820190508181036000830152612bf281612bb6565b9050919050565b7f456c656374696f6e2068617320656e6465640000000000000000000000000000600082015250565b6000612c2f601283612384565b9150612c3a82612bf9565b602082019050919050565b60006020820190508181036000830152612c5e81612c22565b9050919050565b7f596f75206861766520616c726561647920766f74656420696e2074686973206560008201527f6c656374696f6e00000000000000000000000000000000000000000000000000602082015250565b6000612cc1602783612384565b9150612ccc82612c65565b604082019050919050565b60006020820190508181036000830152612cf081612cb4565b9050919050565b7f596f7520617265206e6f742077686974656c697374656420666f72207468697360008201527f20656c656374696f6e0000000000000000000000000000000000000000000000602082015250565b6000612d53602983612384565b9150612d5e82612cf7565b604082019050919050565b60006020820190508181036000830152612d8281612d46565b9050919050565b7f496e76616c69642063616e646964617465204944000000000000000000000000600082015250565b6000612dbf601483612384565b9150612dca82612d89565b602082019050919050565b60006020820190508181036000830152612dee81612db2565b9050919050565b7f4e487b7100000000000000000000000000000000000000000000000000000000600052602260045260246000fd5b60006002820490506001821680612e3c57607f821691505b60208210811415612e5057612e4f612df5565b5b50919050565b7f4f6e6c7920656c656374696f6e2063726561746f722063616e2063616c6c207460008201527f6869732066756e6374696f6e0000000000000000000000000000000000000000602082015250565b6000612eb2602c83612384565b9150612ebd82612e56565b604082019050919050565b60006020820190508181036000830152612ee181612ea5565b9050919050565b7f43616e6e6f74206164642063616e6469646174657320616674657220656c656360008201527f74696f6e20686173207374617274656400000000000000000000000000000000602082015250565b6000612f44603083612384565b9150612f4f82612ee8565b604082019050919050565b60006020820190508181036000830152612f7381612f37565b9050919050565b6000604082019050612f8f600083018561221a565b8181036020830152612fa181846123c8565b90509392505050565b6000612fb5826120f9565b9150612fc0836120f9565b925082821015612fd357612fd2612a0d565b5b828203905092915050565b7f4e487b7100000000000000000000000000000000000000000000000000000000600052603260045260246000fd5b7f57686974656c697374206973206e6f7420656e61626c656420666f722074686960008201527f7320656c656374696f6e00000000000000000000000000000000000000000000602082015250565b6000613069602a83612384565b91506130748261300d565b604082019050919050565b600060208201905081810360008301526130988161305c565b905091905056fea2646970667358221220e5bb5ea0b836e78fb2081847aed203580d27edd2effb833d3f2cc2595296061764736f6c634300080a0033",
    "linkReferences": {},
    "deployedLinkReferences": {}
}